{
  "_format": "hh3-artifact-1",
  "contractName": "ArtNFT",
  "sourceName": "contracts/ArtNFT.sol",
  "abi": [
    {
      "inputs": [],
      "stateMutability": "nonpayable",
      "type": "constructor"
    },
    {
      "inputs": [
        {
          "internalType": "address",
          "name": "sender",
          "type": "address"
        },
        {
          "internalType": "uint256",
          "name": "tokenId",
          "type": "uint256"
        },
        {
          "internalType": "address",
          "name": "owner",
          "type": "address"
        }
      ],
      "name": "ERC721IncorrectOwner",
      "type": "error"
    },
    {
      "inputs": [
        {
          "internalType": "address",
          "name": "operator",
          "type": "address"
        },
        {
          "internalType": "uint256",
          "name": "tokenId",
          "type": "uint256"
        }
      ],
      "name": "ERC721InsufficientApproval",
      "type": "error"
    },
    {
      "inputs": [
        {
          "internalType": "address",
          "name": "approver",
          "type": "address"
        }
      ],
      "name": "ERC721InvalidApprover",
      "type": "error"
    },
    {
      "inputs": [
        {
          "internalType": "address",
          "name": "operator",
          "type": "address"
        }
      ],
      "name": "ERC721InvalidOperator",
      "type": "error"
    },
    {
      "inputs": [
        {
          "internalType": "address",
          "name": "owner",
          "type": "address"
        }
      ],
      "name": "ERC721InvalidOwner",
      "type": "error"
    },
    {
      "inputs": [
        {
          "internalType": "address",
          "name": "receiver",
          "type": "address"
        }
      ],
      "name": "ERC721InvalidReceiver",
      "type": "error"
    },
    {
      "inputs": [
        {
          "internalType": "address",
          "name": "sender",
          "type": "address"
        }
      ],
      "name": "ERC721InvalidSender",
      "type": "error"
    },
    {
      "inputs": [
        {
          "internalType": "uint256",
          "name": "tokenId",
          "type": "uint256"
        }
      ],
      "name": "ERC721NonexistentToken",
      "type": "error"
    },
    {
      "inputs": [
        {
          "internalType": "address",
          "name": "owner",
          "type": "address"
        }
      ],
      "name": "Failed",
      "type": "error"
    },
    {
      "inputs": [
        {
          "internalType": "address",
          "name": "owner",
          "type": "address"
        }
      ],
      "name": "OwnableInvalidOwner",
      "type": "error"
    },
    {
      "inputs": [
        {
          "internalType": "address",
          "name": "account",
          "type": "address"
        }
      ],
      "name": "OwnableUnauthorizedAccount",
      "type": "error"
    },
    {
      "anonymous": false,
      "inputs": [
        {
          "indexed": true,
          "internalType": "address",
          "name": "owner",
          "type": "address"
        },
        {
          "indexed": true,
          "internalType": "address",
          "name": "approved",
          "type": "address"
        },
        {
          "indexed": true,
          "internalType": "uint256",
          "name": "tokenId",
          "type": "uint256"
        }
      ],
      "name": "Approval",
      "type": "event"
    },
    {
      "anonymous": false,
      "inputs": [
        {
          "indexed": true,
          "internalType": "address",
          "name": "owner",
          "type": "address"
        },
        {
          "indexed": true,
          "internalType": "address",
          "name": "operator",
          "type": "address"
        },
        {
          "indexed": false,
          "internalType": "bool",
          "name": "approved",
          "type": "bool"
        }
      ],
      "name": "ApprovalForAll",
      "type": "event"
    },
    {
      "anonymous": false,
      "inputs": [
        {
          "indexed": false,
          "internalType": "uint256",
          "name": "_fromTokenId",
          "type": "uint256"
        },
        {
          "indexed": false,
          "internalType": "uint256",
          "name": "_toTokenId",
          "type": "uint256"
        }
      ],
      "name": "BatchMetadataUpdate",
      "type": "event"
    },
    {
      "anonymous": false,
      "inputs": [
        {
          "indexed": false,
          "internalType": "uint256",
          "name": "_tokenId",
          "type": "uint256"
        }
      ],
      "name": "MetadataUpdate",
      "type": "event"
    },
    {
      "anonymous": false,
      "inputs": [
        {
          "indexed": true,
          "internalType": "uint256",
          "name": "tokenId",
          "type": "uint256"
        },
        {
          "indexed": false,
          "internalType": "uint256",
          "name": "price",
          "type": "uint256"
        },
        {
          "indexed": false,
          "internalType": "address",
          "name": "seller",
          "type": "address"
        }
      ],
      "name": "NFTListed",
      "type": "event"
    },
    {
      "anonymous": false,
      "inputs": [
        {
          "indexed": true,
          "internalType": "uint256",
          "name": "tokenId",
          "type": "uint256"
        },
        {
          "indexed": false,
          "internalType": "uint256",
          "name": "price",
          "type": "uint256"
        },
        {
          "indexed": false,
          "internalType": "address",
          "name": "buyer",
          "type": "address"
        },
        {
          "indexed": false,
          "internalType": "address",
          "name": "seller",
          "type": "address"
        }
      ],
      "name": "NFTPurchased",
      "type": "event"
    },
    {
      "anonymous": false,
      "inputs": [
        {
          "indexed": true,
          "internalType": "address",
          "name": "previousOwner",
          "type": "address"
        },
        {
          "indexed": true,
          "internalType": "address",
          "name": "newOwner",
          "type": "address"
        }
      ],
      "name": "OwnershipTransferred",
      "type": "event"
    },
    {
      "anonymous": false,
      "inputs": [
        {
          "indexed": true,
          "internalType": "address",
          "name": "from",
          "type": "address"
        },
        {
          "indexed": true,
          "internalType": "address",
          "name": "to",
          "type": "address"
        },
        {
          "indexed": true,
          "internalType": "uint256",
          "name": "tokenId",
          "type": "uint256"
        }
      ],
      "name": "Transfer",
      "type": "event"
    },
    {
      "inputs": [
        {
          "internalType": "address",
          "name": "to",
          "type": "address"
        },
        {
          "internalType": "uint256",
          "name": "tokenId",
          "type": "uint256"
        }
      ],
      "name": "approve",
      "outputs": [],
      "stateMutability": "nonpayable",
      "type": "function"
    },
    {
      "inputs": [
        {
          "internalType": "address",
          "name": "owner",
          "type": "address"
        }
      ],
      "name": "balanceOf",
      "outputs": [
        {
          "internalType": "uint256",
          "name": "",
          "type": "uint256"
        }
      ],
      "stateMutability": "view",
      "type": "function"
    },
    {
      "inputs": [
        {
          "internalType": "uint256",
          "name": "tokenId",
          "type": "uint256"
        }
      ],
      "name": "buyNFT",
      "outputs": [],
      "stateMutability": "payable",
      "type": "function"
    },
    {
      "inputs": [
        {
          "internalType": "uint256",
          "name": "itemId",
          "type": "uint256"
        },
        {
          "internalType": "uint8",
          "name": "placeKey",
          "type": "uint8"
        }
      ],
      "name": "check_rwa_PublicationPlace",
      "outputs": [
        {
          "internalType": "string",
          "name": "",
          "type": "string"
        }
      ],
      "stateMutability": "view",
      "type": "function"
    },
    {
      "inputs": [
        {
          "internalType": "uint256",
          "name": "itemId",
          "type": "uint256"
        }
      ],
      "name": "check_rwa_copies",
      "outputs": [
        {
          "internalType": "uint8",
          "name": "",
          "type": "uint8"
        }
      ],
      "stateMutability": "view",
      "type": "function"
    },
    {
      "inputs": [
        {
          "internalType": "uint256",
          "name": "tokenId",
          "type": "uint256"
        }
      ],
      "name": "delistNFT",
      "outputs": [],
      "stateMutability": "nonpayable",
      "type": "function"
    },
    {
      "inputs": [
        {
          "internalType": "uint256",
          "name": "tokenId",
          "type": "uint256"
        }
      ],
      "name": "getApproved",
      "outputs": [
        {
          "internalType": "address",
          "name": "",
          "type": "address"
        }
      ],
      "stateMutability": "view",
      "type": "function"
    },
    {
      "inputs": [],
      "name": "getCurrentTokenId",
      "outputs": [
        {
          "internalType": "uint256",
          "name": "",
          "type": "uint256"
        }
      ],
      "stateMutability": "view",
      "type": "function"
    },
    {
      "inputs": [
        {
          "internalType": "address",
          "name": "owner",
          "type": "address"
        },
        {
          "internalType": "address",
          "name": "operator",
          "type": "address"
        }
      ],
      "name": "isApprovedForAll",
      "outputs": [
        {
          "internalType": "bool",
          "name": "",
          "type": "bool"
        }
      ],
      "stateMutability": "view",
      "type": "function"
    },
    {
      "inputs": [
        {
          "internalType": "uint256",
          "name": "",
          "type": "uint256"
        }
      ],
      "name": "isListed",
      "outputs": [
        {
          "internalType": "bool",
          "name": "",
          "type": "bool"
        }
      ],
      "stateMutability": "view",
      "type": "function"
    },
    {
      "inputs": [
        {
          "internalType": "uint256",
          "name": "",
          "type": "uint256"
        }
      ],
      "name": "itemId_to_metadata",
      "outputs": [
        {
          "internalType": "string",
          "name": "name",
          "type": "string"
        },
        {
          "internalType": "uint8",
          "name": "rwa_copies_count",
          "type": "uint8"
        }
      ],
      "stateMutability": "view",
      "type": "function"
    },
    {
      "inputs": [
        {
          "internalType": "uint256",
          "name": "tokenId",
          "type": "uint256"
        },
        {
          "internalType": "uint256",
          "name": "price",
          "type": "uint256"
        }
      ],
      "name": "listNFT",
      "outputs": [],
      "stateMutability": "nonpayable",
      "type": "function"
    },
    {
      "inputs": [
        {
          "internalType": "string",
          "name": "tokenURI",
          "type": "string"
        },
        {
          "internalType": "string",
          "name": "name",
          "type": "string"
        },
        {
          "internalType": "string",
          "name": "placed_loca",
          "type": "string"
        }
      ],
      "name": "mintItem",
      "outputs": [
        {
          "internalType": "uint256",
          "name": "",
          "type": "uint256"
        }
      ],
      "stateMutability": "nonpayable",
      "type": "function"
    },
    {
      "inputs": [],
      "name": "name",
      "outputs": [
        {
          "internalType": "string",
          "name": "",
          "type": "string"
        }
      ],
      "stateMutability": "view",
      "type": "function"
    },
    {
      "inputs": [],
      "name": "owner",
      "outputs": [
        {
          "internalType": "address",
          "name": "",
          "type": "address"
        }
      ],
      "stateMutability": "view",
      "type": "function"
    },
    {
      "inputs": [
        {
          "internalType": "uint256",
          "name": "tokenId",
          "type": "uint256"
        }
      ],
      "name": "ownerOf",
      "outputs": [
        {
          "internalType": "address",
          "name": "",
          "type": "address"
        }
      ],
      "stateMutability": "view",
      "type": "function"
    },
    {
      "inputs": [],
      "name": "renounceOwnership",
      "outputs": [],
      "stateMutability": "nonpayable",
      "type": "function"
    },
    {
      "inputs": [
        {
          "internalType": "address",
          "name": "from",
          "type": "address"
        },
        {
          "internalType": "address",
          "name": "to",
          "type": "address"
        },
        {
          "internalType": "uint256",
          "name": "tokenId",
          "type": "uint256"
        }
      ],
      "name": "safeTransferFrom",
      "outputs": [],
      "stateMutability": "nonpayable",
      "type": "function"
    },
    {
      "inputs": [
        {
          "internalType": "address",
          "name": "from",
          "type": "address"
        },
        {
          "internalType": "address",
          "name": "to",
          "type": "address"
        },
        {
          "internalType": "uint256",
          "name": "tokenId",
          "type": "uint256"
        },
        {
          "internalType": "bytes",
          "name": "data",
          "type": "bytes"
        }
      ],
      "name": "safeTransferFrom",
      "outputs": [],
      "stateMutability": "nonpayable",
      "type": "function"
    },
    {
      "inputs": [
        {
          "internalType": "address",
          "name": "operator",
          "type": "address"
        },
        {
          "internalType": "bool",
          "name": "approved",
          "type": "bool"
        }
      ],
      "name": "setApprovalForAll",
      "outputs": [],
      "stateMutability": "nonpayable",
      "type": "function"
    },
    {
      "inputs": [
        {
          "internalType": "address",
          "name": "_itemowner",
          "type": "address"
        }
      ],
      "name": "share_revenue",
      "outputs": [],
      "stateMutability": "payable",
      "type": "function"
    },
    {
      "inputs": [
        {
          "internalType": "bytes4",
          "name": "interfaceId",
          "type": "bytes4"
        }
      ],
      "name": "supportsInterface",
      "outputs": [
        {
          "internalType": "bool",
          "name": "",
          "type": "bool"
        }
      ],
      "stateMutability": "view",
      "type": "function"
    },
    {
      "inputs": [],
      "name": "symbol",
      "outputs": [
        {
          "internalType": "string",
          "name": "",
          "type": "string"
        }
      ],
      "stateMutability": "view",
      "type": "function"
    },
    {
      "inputs": [
        {
          "internalType": "uint256",
          "name": "",
          "type": "uint256"
        }
      ],
      "name": "tokenPrices",
      "outputs": [
        {
          "internalType": "uint256",
          "name": "",
          "type": "uint256"
        }
      ],
      "stateMutability": "view",
      "type": "function"
    },
    {
      "inputs": [
        {
          "internalType": "uint256",
          "name": "tokenId",
          "type": "uint256"
        }
      ],
      "name": "tokenURI",
      "outputs": [
        {
          "internalType": "string",
          "name": "",
          "type": "string"
        }
      ],
      "stateMutability": "view",
      "type": "function"
    },
    {
      "inputs": [
        {
          "internalType": "uint256",
          "name": "itemId",
          "type": "uint256"
        }
      ],
      "name": "token_name",
      "outputs": [
        {
          "internalType": "string",
          "name": "",
          "type": "string"
        }
      ],
      "stateMutability": "view",
      "type": "function"
    },
    {
      "inputs": [
        {
          "internalType": "uint256",
          "name": "itemId",
          "type": "uint256"
        }
      ],
      "name": "token_price",
      "outputs": [
        {
          "internalType": "uint256",
          "name": "",
          "type": "uint256"
        }
      ],
      "stateMutability": "view",
      "type": "function"
    },
    {
      "inputs": [
        {
          "internalType": "address",
          "name": "from",
          "type": "address"
        },
        {
          "internalType": "address",
          "name": "to",
          "type": "address"
        },
        {
          "internalType": "uint256",
          "name": "tokenId",
          "type": "uint256"
        }
      ],
      "name": "transferFrom",
      "outputs": [],
      "stateMutability": "nonpayable",
      "type": "function"
    },
    {
      "inputs": [
        {
          "internalType": "address",
          "name": "newOwner",
          "type": "address"
        }
      ],
      "name": "transferOwnership",
      "outputs": [],
      "stateMutability": "nonpayable",
      "type": "function"
    },
    {
      "inputs": [
        {
          "internalType": "uint256",
          "name": "tokenId",
          "type": "uint256"
        },
        {
          "internalType": "uint8",
          "name": "placeKey",
          "type": "uint8"
        },
        {
          "internalType": "string",
          "name": "place",
          "type": "string"
        }
      ],
      "name": "updatePublicationPlace",
      "outputs": [],
      "stateMutability": "nonpayable",
      "type": "function"
    },
    {
      "inputs": [],
      "name": "withdraw",
      "outputs": [],
      "stateMutability": "nonpayable",
      "type": "function"
    }
  ],
  "bytecode": "0x608060405234801561000f575f5ffd5b50336040518060400160405280600681526020017f4d6f794e465400000000000000000000000000000000000000000000000000008152506040518060400160405280600481526020017f4d4e465400000000000000000000000000000000000000000000000000000000815250815f908161008b9190610423565b50806001908161009b9190610423565b5050505f73ffffffffffffffffffffffffffffffffffffffff168173ffffffffffffffffffffffffffffffffffffffff160361010e575f6040517f1e4fbdf70000000000000000000000000000000000000000000000000000000081526004016101059190610531565b60405180910390fd5b61011d8161012360201b60201c565b5061054a565b5f60075f9054906101000a900473ffffffffffffffffffffffffffffffffffffffff1690508160075f6101000a81548173ffffffffffffffffffffffffffffffffffffffff021916908373ffffffffffffffffffffffffffffffffffffffff1602179055508173ffffffffffffffffffffffffffffffffffffffff168173ffffffffffffffffffffffffffffffffffffffff167f8be0079c531659141344cd1fd0a4f28419497f9722a3daafe3b4186f6b6457e060405160405180910390a35050565b5f81519050919050565b7f4e487b71000000000000000000000000000000000000000000000000000000005f52604160045260245ffd5b7f4e487b71000000000000000000000000000000000000000000000000000000005f52602260045260245ffd5b5f600282049050600182168061026157607f821691505b6020821081036102745761027361021d565b5b50919050565b5f819050815f5260205f209050919050565b5f6020601f8301049050919050565b5f82821b905092915050565b5f600883026102d67fffffffffffffffffffffffffffffffffffffffffffffffffffffffffffffffff8261029b565b6102e0868361029b565b95508019841693508086168417925050509392505050565b5f819050919050565b5f819050919050565b5f61032461031f61031a846102f8565b610301565b6102f8565b9050919050565b5f819050919050565b61033d8361030a565b6103516103498261032b565b8484546102a7565b825550505050565b5f5f905090565b610368610359565b610373818484610334565b505050565b5b818110156103965761038b5f82610360565b600181019050610379565b5050565b601f8211156103db576103ac8161027a565b6103b58461028c565b810160208510156103c4578190505b6103d86103d08561028c565b830182610378565b50505b505050565b5f82821c905092915050565b5f6103fb5f19846008026103e0565b1980831691505092915050565b5f61041383836103ec565b9150826002028217905092915050565b61042c826101e6565b67ffffffffffffffff811115610445576104446101f0565b5b61044f825461024a565b61045a82828561039a565b5f60209050601f83116001811461048b575f8415610479578287015190505b6104838582610408565b8655506104ea565b601f1984166104998661027a565b5f5b828110156104c05784890151825560018201915060208501945060208101905061049b565b868310156104dd57848901516104d9601f8916826103ec565b8355505b6001600288020188555050505b505050505050565b5f73ffffffffffffffffffffffffffffffffffffffff82169050919050565b5f61051b826104f2565b9050919050565b61052b81610511565b82525050565b5f6020820190506105445f830184610522565b92915050565b614071806105575f395ff3fe6080604052600436106101d7575f3560e01c80636d1432ac11610101578063c87b56dd11610094578063f1fcd1a311610063578063f1fcd1a3146106d0578063f2fde38b1461070c578063f43cc7a514610734578063fcce48831461075c576101d7565b8063c87b56dd146105f4578063cb917b9c14610630578063e5afe3e614610658578063e985e9c514610694576101d7565b806394383f14116100d057806394383f141461055257806395d89b411461057a578063a22cb465146105a4578063b88d4fde146105cc576101d7565b80636d1432ac1461049a57806370a08231146104d6578063715018a6146105125780638da5cb5b14610528576101d7565b80632818553f1161017957806351ed82881161014857806351ed8288146103dc57806356189236146103f85780636352211e14610422578063672727ab1461045e576101d7565b80632818553f146103465780633119fc84146103825780633ccfd60b1461039e57806342842e0e146103b4576101d7565b8063095ea7b3116101b5578063095ea7b31461027d5780630ff7ffdb146102a557806320205c4c146102e157806323b872dd1461031e576101d7565b806301ffc9a7146101db57806306fdde0314610217578063081812fc14610241575b5f5ffd5b3480156101e6575f5ffd5b5061020160048036038101906101fc9190612bc8565b610798565b60405161020e9190612c0d565b60405180910390f35b348015610222575f5ffd5b5061022b6107f8565b6040516102389190612c96565b60405180910390f35b34801561024c575f5ffd5b5061026760048036038101906102629190612ce9565b610887565b6040516102749190612d53565b60405180910390f35b348015610288575f5ffd5b506102a3600480360381019061029e9190612d96565b6108a2565b005b3480156102b0575f5ffd5b506102cb60048036038101906102c69190612f00565b6108b8565b6040516102d89190612fb3565b60405180910390f35b3480156102ec575f5ffd5b5061030760048036038101906103029190612ce9565b610976565b604051610315929190612fe7565b60405180910390f35b348015610329575f5ffd5b50610344600480360381019061033f9190613015565b610a28565b005b348015610351575f5ffd5b5061036c60048036038101906103679190612ce9565b610b27565b6040516103799190612fb3565b60405180910390f35b61039c60048036038101906103979190613065565b610b41565b005b3480156103a9575f5ffd5b506103b2610bed565b005b3480156103bf575f5ffd5b506103da60048036038101906103d59190613015565b610cee565b005b6103f660048036038101906103f19190612ce9565b610d0d565b005b348015610403575f5ffd5b5061040c610ff7565b6040516104199190612fb3565b60405180910390f35b34801561042d575f5ffd5b5061044860048036038101906104439190612ce9565b611000565b6040516104559190612d53565b60405180910390f35b348015610469575f5ffd5b50610484600480360381019061047f9190612ce9565b611011565b6040516104919190612c96565b60405180910390f35b3480156104a5575f5ffd5b506104c060048036038101906104bb9190612ce9565b6110b4565b6040516104cd9190613090565b60405180910390f35b3480156104e1575f5ffd5b506104fc60048036038101906104f79190613065565b6110dd565b6040516105099190612fb3565b60405180910390f35b34801561051d575f5ffd5b50610526611193565b005b348015610533575f5ffd5b5061053c6111a6565b6040516105499190612d53565b60405180910390f35b34801561055d575f5ffd5b50610578600480360381019061057391906130a9565b6111ce565b005b348015610585575f5ffd5b5061058e6113e1565b60405161059b9190612c96565b60405180910390f35b3480156105af575f5ffd5b506105ca60048036038101906105c59190613111565b611471565b005b3480156105d7575f5ffd5b506105f260048036038101906105ed91906131ed565b611487565b005b3480156105ff575f5ffd5b5061061a60048036038101906106159190612ce9565b6114ac565b6040516106279190612c96565b60405180910390f35b34801561063b575f5ffd5b5061065660048036038101906106519190612ce9565b6115b7565b005b348015610663575f5ffd5b5061067e60048036038101906106799190612ce9565b61170f565b60405161068b9190612fb3565b60405180910390f35b34801561069f575f5ffd5b506106ba60048036038101906106b5919061326d565b611724565b6040516106c79190612c0d565b60405180910390f35b3480156106db575f5ffd5b506106f660048036038101906106f191906132d5565b6117b2565b6040516107039190612c96565b60405180910390f35b348015610717575f5ffd5b50610732600480360381019061072d9190613065565b61186c565b005b34801561073f575f5ffd5b5061075a60048036038101906107559190613313565b6118f0565b005b348015610767575f5ffd5b50610782600480360381019061077d9190612ce9565b6119f2565b60405161078f9190612c0d565b60405180910390f35b5f634906490660e01b7bffffffffffffffffffffffffffffffffffffffffffffffffffffffff1916827bffffffffffffffffffffffffffffffffffffffffffffffffffffffff191614806107f157506107f082611a0f565b5b9050919050565b60605f8054610806906133ac565b80601f0160208091040260200160405190810160405280929190818152602001828054610832906133ac565b801561087d5780601f106108545761010080835404028352916020019161087d565b820191905f5260205f20905b81548152906001019060200180831161086057829003601f168201915b5050505050905090565b5f61089182611af0565b5061089b82611b76565b9050919050565b6108b482826108af611baf565b611bb6565b5050565b5f5f60085490506108c93382611bc8565b6108d38186611cbb565b60085f8154809291906108e590613409565b91905055508360095f8381526020019081526020015f205f01908161090a91906135f0565b505f60095f8381526020019081526020015f206001015f6101000a81548160ff021916908360ff1602179055508260095f8381526020019081526020015f206002015f5f60ff1681526020019081526020015f20908161096a91906135f0565b50809150509392505050565b6009602052805f5260405f205f91509050805f018054610995906133ac565b80601f01602080910402602001604051908101604052809291908181526020018280546109c1906133ac565b8015610a0c5780601f106109e357610100808354040283529160200191610a0c565b820191905f5260205f20905b8154815290600101906020018083116109ef57829003601f168201915b505050505090806001015f9054906101000a900460ff16905082565b5f73ffffffffffffffffffffffffffffffffffffffff168273ffffffffffffffffffffffffffffffffffffffff1603610a98575f6040517f64a0ae92000000000000000000000000000000000000000000000000000000008152600401610a8f9190612d53565b60405180910390fd5b5f610aab8383610aa6611baf565b611d15565b90508373ffffffffffffffffffffffffffffffffffffffff168173ffffffffffffffffffffffffffffffffffffffff1614610b21578382826040517f64283d7b000000000000000000000000000000000000000000000000000000008152600401610b18939291906136bf565b60405180910390fd5b50505050565b5f600a5f8381526020019081526020015f20549050919050565b5f8173ffffffffffffffffffffffffffffffffffffffff1634604051610b6690613721565b5f6040518083038185875af1925050503d805f8114610ba0576040519150601f19603f3d011682016040523d82523d5f602084013e610ba5565b606091505b5050905080610be9576040517f08c379a0000000000000000000000000000000000000000000000000000000008152600401610be09061377f565b60405180910390fd5b5050565b610bf5611f20565b5f4790505f8111610c3b576040517f08c379a0000000000000000000000000000000000000000000000000000000008152600401610c32906137e7565b60405180910390fd5b5f610c446111a6565b73ffffffffffffffffffffffffffffffffffffffff1682604051610c6790613721565b5f6040518083038185875af1925050503d805f8114610ca1576040519150601f19603f3d011682016040523d82523d5f602084013e610ca6565b606091505b5050905080610cea576040517f08c379a0000000000000000000000000000000000000000000000000000000008152600401610ce19061384f565b60405180910390fd5b5050565b610d0883838360405180602001604052805f815250611487565b505050565b600b5f8281526020019081526020015f205f9054906101000a900460ff16610d6a576040517f08c379a0000000000000000000000000000000000000000000000000000000008152600401610d61906138b7565b60405180910390fd5b600a5f8281526020019081526020015f2054341015610dbe576040517f08c379a0000000000000000000000000000000000000000000000000000000008152600401610db59061391f565b60405180910390fd5b5f610dc882611000565b90503373ffffffffffffffffffffffffffffffffffffffff168173ffffffffffffffffffffffffffffffffffffffff1603610e38576040517f08c379a0000000000000000000000000000000000000000000000000000000008152600401610e2f90613987565b60405180910390fd5b3073ffffffffffffffffffffffffffffffffffffffff16610e5883610887565b73ffffffffffffffffffffffffffffffffffffffff1614610eae576040517f08c379a0000000000000000000000000000000000000000000000000000000008152600401610ea590613a15565b60405180910390fd5b5f610eb883611000565b90505f8173ffffffffffffffffffffffffffffffffffffffff1634604051610edf90613721565b5f6040518083038185875af1925050503d805f8114610f19576040519150601f19603f3d011682016040523d82523d5f602084013e610f1e565b606091505b5050905080610f62576040517f08c379a0000000000000000000000000000000000000000000000000000000008152600401610f5990613a7d565b60405180910390fd5b5f600b5f8681526020019081526020015f205f6101000a81548160ff0219169083151502179055505f600a5f8681526020019081526020015f2081905550610fab833386611fa7565b610fb55f856108a2565b837f8d4fa5d76924913cce4b580da4c40e50715ae52df27a337f5fcaeb7614043833343386604051610fe993929190613a9b565b60405180910390a250505050565b5f600854905090565b5f61100a82611af0565b9050919050565b606060095f8381526020019081526020015f205f018054611031906133ac565b80601f016020809104026020016040519081016040528092919081815260200182805461105d906133ac565b80156110a85780601f1061107f576101008083540402835291602001916110a8565b820191905f5260205f20905b81548152906001019060200180831161108b57829003601f168201915b50505050509050919050565b5f60095f8381526020019081526020015f206001015f9054906101000a900460ff169050919050565b5f5f73ffffffffffffffffffffffffffffffffffffffff168273ffffffffffffffffffffffffffffffffffffffff160361114e575f6040517f89c62b640000000000000000000000000000000000000000000000000000000081526004016111459190612d53565b60405180910390fd5b60035f8373ffffffffffffffffffffffffffffffffffffffff1673ffffffffffffffffffffffffffffffffffffffff1681526020019081526020015f20549050919050565b61119b611f20565b6111a45f61210f565b565b5f60075f9054906101000a900473ffffffffffffffffffffffffffffffffffffffff16905090565b3373ffffffffffffffffffffffffffffffffffffffff166111ee83611000565b73ffffffffffffffffffffffffffffffffffffffff1614611244576040517f08c379a000000000000000000000000000000000000000000000000000000000815260040161123b90613b1a565b60405180910390fd5b5f8111611286576040517f08c379a000000000000000000000000000000000000000000000000000000000815260040161127d90613b82565b60405180910390fd5b600b5f8381526020019081526020015f205f9054906101000a900460ff16156112e4576040517f08c379a00000000000000000000000000000000000000000000000000000000081526004016112db90613bea565b60405180910390fd5b6112ee30836108a2565b3073ffffffffffffffffffffffffffffffffffffffff1661130e83610887565b73ffffffffffffffffffffffffffffffffffffffff1614611364576040517f08c379a000000000000000000000000000000000000000000000000000000000815260040161135b90613c78565b60405180910390fd5b80600a5f8481526020019081526020015f20819055506001600b5f8481526020019081526020015f205f6101000a81548160ff021916908315150217905550817fd2ab19646d6f9fdd37206f962b4ebaab8a4a23ad87f7695e7e1736803cb8bf7482336040516113d5929190613c96565b60405180910390a25050565b6060600180546113f0906133ac565b80601f016020809104026020016040519081016040528092919081815260200182805461141c906133ac565b80156114675780601f1061143e57610100808354040283529160200191611467565b820191905f5260205f20905b81548152906001019060200180831161144a57829003601f168201915b5050505050905090565b61148361147c611baf565b83836121d2565b5050565b611492848484610a28565b6114a661149d611baf565b8585858561233b565b50505050565b60606114b782611af0565b505f60065f8481526020019081526020015f2080546114d5906133ac565b80601f0160208091040260200160405190810160405280929190818152602001828054611501906133ac565b801561154c5780601f106115235761010080835404028352916020019161154c565b820191905f5260205f20905b81548152906001019060200180831161152f57829003601f168201915b505050505090505f61155c6124e7565b90505f8151036115705781925050506115b2565b5f825111156115a457808260405160200161158c929190613cf7565b604051602081830303815290604052925050506115b2565b6115ad846124fd565b925050505b919050565b3373ffffffffffffffffffffffffffffffffffffffff166115d782611000565b73ffffffffffffffffffffffffffffffffffffffff161461162d576040517f08c379a000000000000000000000000000000000000000000000000000000000815260040161162490613d8a565b60405180910390fd5b600b5f8281526020019081526020015f205f9054906101000a900460ff1661168a576040517f08c379a000000000000000000000000000000000000000000000000000000000815260040161168190613df2565b60405180910390fd5b5f600b5f8381526020019081526020015f205f6101000a81548160ff0219169083151502179055505f600a5f8381526020019081526020015f20819055506116d25f826108a2565b807fd2ab19646d6f9fdd37206f962b4ebaab8a4a23ad87f7695e7e1736803cb8bf745f33604051611704929190613e49565b60405180910390a250565b600a602052805f5260405f205f915090505481565b5f60055f8473ffffffffffffffffffffffffffffffffffffffff1673ffffffffffffffffffffffffffffffffffffffff1681526020019081526020015f205f8373ffffffffffffffffffffffffffffffffffffffff1673ffffffffffffffffffffffffffffffffffffffff1681526020019081526020015f205f9054906101000a900460ff16905092915050565b606060095f8481526020019081526020015f206002015f8360ff1660ff1681526020019081526020015f2080546117e8906133ac565b80601f0160208091040260200160405190810160405280929190818152602001828054611814906133ac565b801561185f5780601f106118365761010080835404028352916020019161185f565b820191905f5260205f20905b81548152906001019060200180831161184257829003601f168201915b5050505050905092915050565b611874611f20565b5f73ffffffffffffffffffffffffffffffffffffffff168173ffffffffffffffffffffffffffffffffffffffff16036118e4575f6040517f1e4fbdf70000000000000000000000000000000000000000000000000000000081526004016118db9190612d53565b60405180910390fd5b6118ed8161210f565b50565b6118f8611f20565b5f73ffffffffffffffffffffffffffffffffffffffff1661191884612563565b73ffffffffffffffffffffffffffffffffffffffff160361196e576040517f08c379a000000000000000000000000000000000000000000000000000000000815260040161196590613eba565b60405180910390fd5b8060095f8581526020019081526020015f206002015f8460ff1660ff1681526020019081526020015f2090816119a491906135f0565b50600160095f8581526020019081526020015f206001015f8282829054906101000a900460ff166119d59190613ed8565b92506101000a81548160ff021916908360ff160217905550505050565b600b602052805f5260405f205f915054906101000a900460ff1681565b5f7f80ac58cd000000000000000000000000000000000000000000000000000000007bffffffffffffffffffffffffffffffffffffffffffffffffffffffff1916827bffffffffffffffffffffffffffffffffffffffffffffffffffffffff19161480611ad957507f5b5e139f000000000000000000000000000000000000000000000000000000007bffffffffffffffffffffffffffffffffffffffffffffffffffffffff1916827bffffffffffffffffffffffffffffffffffffffffffffffffffffffff1916145b80611ae95750611ae88261259c565b5b9050919050565b5f5f611afb83612563565b90505f73ffffffffffffffffffffffffffffffffffffffff168173ffffffffffffffffffffffffffffffffffffffff1603611b6d57826040517f7e273289000000000000000000000000000000000000000000000000000000008152600401611b649190612fb3565b60405180910390fd5b80915050919050565b5f60045f8381526020019081526020015f205f9054906101000a900473ffffffffffffffffffffffffffffffffffffffff169050919050565b5f33905090565b611bc38383836001612605565b505050565b5f73ffffffffffffffffffffffffffffffffffffffff168273ffffffffffffffffffffffffffffffffffffffff1603611c38575f6040517f64a0ae92000000000000000000000000000000000000000000000000000000008152600401611c2f9190612d53565b60405180910390fd5b5f611c4483835f611d15565b90505f73ffffffffffffffffffffffffffffffffffffffff168173ffffffffffffffffffffffffffffffffffffffff1614611cb6575f6040517f73c6ac6e000000000000000000000000000000000000000000000000000000008152600401611cad9190612d53565b60405180910390fd5b505050565b8060065f8481526020019081526020015f209081611cd991906135f0565b507ff8e1a15aba9398e019f0b49df1a4fde98ee17ae345cb5f6b5e2c27f5033e8ce782604051611d099190612fb3565b60405180910390a15050565b5f5f611d2084612563565b90505f73ffffffffffffffffffffffffffffffffffffffff168373ffffffffffffffffffffffffffffffffffffffff1614611d6157611d608184866127c4565b5b5f73ffffffffffffffffffffffffffffffffffffffff168173ffffffffffffffffffffffffffffffffffffffff1614611dec57611da05f855f5f612605565b600160035f8373ffffffffffffffffffffffffffffffffffffffff1673ffffffffffffffffffffffffffffffffffffffff1681526020019081526020015f205f82825403925050819055505b5f73ffffffffffffffffffffffffffffffffffffffff168573ffffffffffffffffffffffffffffffffffffffff1614611e6b57600160035f8773ffffffffffffffffffffffffffffffffffffffff1673ffffffffffffffffffffffffffffffffffffffff1681526020019081526020015f205f82825401925050819055505b8460025f8681526020019081526020015f205f6101000a81548173ffffffffffffffffffffffffffffffffffffffff021916908373ffffffffffffffffffffffffffffffffffffffff160217905550838573ffffffffffffffffffffffffffffffffffffffff168273ffffffffffffffffffffffffffffffffffffffff167fddf252ad1be2c89b69c2b068fc378daa952ba7f163c4a11628f55a4df523b3ef60405160405180910390a4809150509392505050565b611f28611baf565b73ffffffffffffffffffffffffffffffffffffffff16611f466111a6565b73ffffffffffffffffffffffffffffffffffffffff1614611fa557611f69611baf565b6040517f118cdaa7000000000000000000000000000000000000000000000000000000008152600401611f9c9190612d53565b60405180910390fd5b565b5f73ffffffffffffffffffffffffffffffffffffffff168273ffffffffffffffffffffffffffffffffffffffff1603612017575f6040517f64a0ae9200000000000000000000000000000000000000000000000000000000815260040161200e9190612d53565b60405180910390fd5b5f61202383835f611d15565b90505f73ffffffffffffffffffffffffffffffffffffffff168173ffffffffffffffffffffffffffffffffffffffff160361209557816040517f7e27328900000000000000000000000000000000000000000000000000000000815260040161208c9190612fb3565b60405180910390fd5b8373ffffffffffffffffffffffffffffffffffffffff168173ffffffffffffffffffffffffffffffffffffffff1614612109578382826040517f64283d7b000000000000000000000000000000000000000000000000000000008152600401612100939291906136bf565b60405180910390fd5b50505050565b5f60075f9054906101000a900473ffffffffffffffffffffffffffffffffffffffff1690508160075f6101000a81548173ffffffffffffffffffffffffffffffffffffffff021916908373ffffffffffffffffffffffffffffffffffffffff1602179055508173ffffffffffffffffffffffffffffffffffffffff168173ffffffffffffffffffffffffffffffffffffffff167f8be0079c531659141344cd1fd0a4f28419497f9722a3daafe3b4186f6b6457e060405160405180910390a35050565b5f73ffffffffffffffffffffffffffffffffffffffff168273ffffffffffffffffffffffffffffffffffffffff160361224257816040517f5b08ba180000000000000000000000000000000000000000000000000000000081526004016122399190612d53565b60405180910390fd5b8060055f8573ffffffffffffffffffffffffffffffffffffffff1673ffffffffffffffffffffffffffffffffffffffff1681526020019081526020015f205f8473ffffffffffffffffffffffffffffffffffffffff1673ffffffffffffffffffffffffffffffffffffffff1681526020019081526020015f205f6101000a81548160ff0219169083151502179055508173ffffffffffffffffffffffffffffffffffffffff168373ffffffffffffffffffffffffffffffffffffffff167f17307eab39ab6107e8899845ad3d59bd9653f200f220920489ca2b5937696c318360405161232e9190612c0d565b60405180910390a3505050565b5f8373ffffffffffffffffffffffffffffffffffffffff163b11156124e0578273ffffffffffffffffffffffffffffffffffffffff1663150b7a02868685856040518563ffffffff1660e01b81526004016123999493929190613f5e565b6020604051808303815f875af19250505080156123d457506040513d601f19601f820116820180604052508101906123d19190613fbc565b60015b612455573d805f8114612402576040519150601f19603f3d011682016040523d82523d5f602084013e612407565b606091505b505f81510361244d57836040517f64a0ae920000000000000000000000000000000000000000000000000000000081526004016124449190612d53565b60405180910390fd5b805160208201fd5b63150b7a0260e01b7bffffffffffffffffffffffffffffffffffffffffffffffffffffffff1916817bffffffffffffffffffffffffffffffffffffffffffffffffffffffff1916146124de57836040517f64a0ae920000000000000000000000000000000000000000000000000000000081526004016124d59190612d53565b60405180910390fd5b505b5050505050565b606060405180602001604052805f815250905090565b606061250882611af0565b505f6125126124e7565b90505f8151116125305760405180602001604052805f81525061255b565b8061253a84612887565b60405160200161254b929190613cf7565b6040516020818303038152906040525b915050919050565b5f60025f8381526020019081526020015f205f9054906101000a900473ffffffffffffffffffffffffffffffffffffffff169050919050565b5f7f01ffc9a7000000000000000000000000000000000000000000000000000000007bffffffffffffffffffffffffffffffffffffffffffffffffffffffff1916827bffffffffffffffffffffffffffffffffffffffffffffffffffffffff1916149050919050565b808061263d57505f73ffffffffffffffffffffffffffffffffffffffff168273ffffffffffffffffffffffffffffffffffffffff1614155b1561276f575f61264c84611af0565b90505f73ffffffffffffffffffffffffffffffffffffffff168373ffffffffffffffffffffffffffffffffffffffff16141580156126b657508273ffffffffffffffffffffffffffffffffffffffff168173ffffffffffffffffffffffffffffffffffffffff1614155b80156126c957506126c78184611724565b155b1561270b57826040517fa9fbf51f0000000000000000000000000000000000000000000000000000000081526004016127029190612d53565b60405180910390fd5b811561276d57838573ffffffffffffffffffffffffffffffffffffffff168273ffffffffffffffffffffffffffffffffffffffff167f8c5be1e5ebec7d5bd14f71427d1e84f3dd0314c0f7b2291e5b200ac8c7c3b92560405160405180910390a45b505b8360045f8581526020019081526020015f205f6101000a81548173ffffffffffffffffffffffffffffffffffffffff021916908373ffffffffffffffffffffffffffffffffffffffff16021790555050505050565b6127cf838383612951565b612882575f73ffffffffffffffffffffffffffffffffffffffff168373ffffffffffffffffffffffffffffffffffffffff160361284357806040517f7e27328900000000000000000000000000000000000000000000000000000000815260040161283a9190612fb3565b60405180910390fd5b81816040517f177e802f000000000000000000000000000000000000000000000000000000008152600401612879929190613fe7565b60405180910390fd5b505050565b60605f600161289584612a11565b0190505f8167ffffffffffffffff8111156128b3576128b2612ddc565b5b6040519080825280601f01601f1916602001820160405280156128e55781602001600182028036833780820191505090505b5090505f82602083010190505b600115612946578080600190039150507f3031323334353637383961626364656600000000000000000000000000000000600a86061a8153600a858161293b5761293a61400e565b5b0494505f85036128f2575b819350505050919050565b5f5f73ffffffffffffffffffffffffffffffffffffffff168373ffffffffffffffffffffffffffffffffffffffff1614158015612a0857508273ffffffffffffffffffffffffffffffffffffffff168473ffffffffffffffffffffffffffffffffffffffff1614806129c957506129c88484611724565b5b80612a0757508273ffffffffffffffffffffffffffffffffffffffff166129ef83611b76565b73ffffffffffffffffffffffffffffffffffffffff16145b5b90509392505050565b5f5f5f90507a184f03e93ff9f4daa797ed6e38ed64bf6a1f0100000000000000008310612a6d577a184f03e93ff9f4daa797ed6e38ed64bf6a1f0100000000000000008381612a6357612a6261400e565b5b0492506040810190505b6d04ee2d6d415b85acef81000000008310612aaa576d04ee2d6d415b85acef81000000008381612aa057612a9f61400e565b5b0492506020810190505b662386f26fc100008310612ad957662386f26fc100008381612acf57612ace61400e565b5b0492506010810190505b6305f5e1008310612b02576305f5e1008381612af857612af761400e565b5b0492506008810190505b6127108310612b27576127108381612b1d57612b1c61400e565b5b0492506004810190505b60648310612b4a5760648381612b4057612b3f61400e565b5b0492506002810190505b600a8310612b59576001810190505b80915050919050565b5f604051905090565b5f5ffd5b5f5ffd5b5f7fffffffff0000000000000000000000000000000000000000000000000000000082169050919050565b612ba781612b73565b8114612bb1575f5ffd5b50565b5f81359050612bc281612b9e565b92915050565b5f60208284031215612bdd57612bdc612b6b565b5b5f612bea84828501612bb4565b91505092915050565b5f8115159050919050565b612c0781612bf3565b82525050565b5f602082019050612c205f830184612bfe565b92915050565b5f81519050919050565b5f82825260208201905092915050565b8281835e5f83830152505050565b5f601f19601f8301169050919050565b5f612c6882612c26565b612c728185612c30565b9350612c82818560208601612c40565b612c8b81612c4e565b840191505092915050565b5f6020820190508181035f830152612cae8184612c5e565b905092915050565b5f819050919050565b612cc881612cb6565b8114612cd2575f5ffd5b50565b5f81359050612ce381612cbf565b92915050565b5f60208284031215612cfe57612cfd612b6b565b5b5f612d0b84828501612cd5565b91505092915050565b5f73ffffffffffffffffffffffffffffffffffffffff82169050919050565b5f612d3d82612d14565b9050919050565b612d4d81612d33565b82525050565b5f602082019050612d665f830184612d44565b92915050565b612d7581612d33565b8114612d7f575f5ffd5b50565b5f81359050612d9081612d6c565b92915050565b5f5f60408385031215612dac57612dab612b6b565b5b5f612db985828601612d82565b9250506020612dca85828601612cd5565b9150509250929050565b5f5ffd5b5f5ffd5b7f4e487b71000000000000000000000000000000000000000000000000000000005f52604160045260245ffd5b612e1282612c4e565b810181811067ffffffffffffffff82111715612e3157612e30612ddc565b5b80604052505050565b5f612e43612b62565b9050612e4f8282612e09565b919050565b5f67ffffffffffffffff821115612e6e57612e6d612ddc565b5b612e7782612c4e565b9050602081019050919050565b828183375f83830152505050565b5f612ea4612e9f84612e54565b612e3a565b905082815260208101848484011115612ec057612ebf612dd8565b5b612ecb848285612e84565b509392505050565b5f82601f830112612ee757612ee6612dd4565b5b8135612ef7848260208601612e92565b91505092915050565b5f5f5f60608486031215612f1757612f16612b6b565b5b5f84013567ffffffffffffffff811115612f3457612f33612b6f565b5b612f4086828701612ed3565b935050602084013567ffffffffffffffff811115612f6157612f60612b6f565b5b612f6d86828701612ed3565b925050604084013567ffffffffffffffff811115612f8e57612f8d612b6f565b5b612f9a86828701612ed3565b9150509250925092565b612fad81612cb6565b82525050565b5f602082019050612fc65f830184612fa4565b92915050565b5f60ff82169050919050565b612fe181612fcc565b82525050565b5f6040820190508181035f830152612fff8185612c5e565b905061300e6020830184612fd8565b9392505050565b5f5f5f6060848603121561302c5761302b612b6b565b5b5f61303986828701612d82565b935050602061304a86828701612d82565b925050604061305b86828701612cd5565b9150509250925092565b5f6020828403121561307a57613079612b6b565b5b5f61308784828501612d82565b91505092915050565b5f6020820190506130a35f830184612fd8565b92915050565b5f5f604083850312156130bf576130be612b6b565b5b5f6130cc85828601612cd5565b92505060206130dd85828601612cd5565b9150509250929050565b6130f081612bf3565b81146130fa575f5ffd5b50565b5f8135905061310b816130e7565b92915050565b5f5f6040838503121561312757613126612b6b565b5b5f61313485828601612d82565b9250506020613145858286016130fd565b9150509250929050565b5f67ffffffffffffffff82111561316957613168612ddc565b5b61317282612c4e565b9050602081019050919050565b5f61319161318c8461314f565b612e3a565b9050828152602081018484840111156131ad576131ac612dd8565b5b6131b8848285612e84565b509392505050565b5f82601f8301126131d4576131d3612dd4565b5b81356131e484826020860161317f565b91505092915050565b5f5f5f5f6080858703121561320557613204612b6b565b5b5f61321287828801612d82565b945050602061322387828801612d82565b935050604061323487828801612cd5565b925050606085013567ffffffffffffffff81111561325557613254612b6f565b5b613261878288016131c0565b91505092959194509250565b5f5f6040838503121561328357613282612b6b565b5b5f61329085828601612d82565b92505060206132a185828601612d82565b9150509250929050565b6132b481612fcc565b81146132be575f5ffd5b50565b5f813590506132cf816132ab565b92915050565b5f5f604083850312156132eb576132ea612b6b565b5b5f6132f885828601612cd5565b9250506020613309858286016132c1565b9150509250929050565b5f5f5f6060848603121561332a57613329612b6b565b5b5f61333786828701612cd5565b9350506020613348868287016132c1565b925050604084013567ffffffffffffffff81111561336957613368612b6f565b5b61337586828701612ed3565b9150509250925092565b7f4e487b71000000000000000000000000000000000000000000000000000000005f52602260045260245ffd5b5f60028204905060018216806133c357607f821691505b6020821081036133d6576133d561337f565b5b50919050565b7f4e487b71000000000000000000000000000000000000000000000000000000005f52601160045260245ffd5b5f61341382612cb6565b91507fffffffffffffffffffffffffffffffffffffffffffffffffffffffffffffffff8203613445576134446133dc565b5b600182019050919050565b5f819050815f5260205f209050919050565b5f6020601f8301049050919050565b5f82821b905092915050565b5f600883026134ac7fffffffffffffffffffffffffffffffffffffffffffffffffffffffffffffffff82613471565b6134b68683613471565b95508019841693508086168417925050509392505050565b5f819050919050565b5f6134f16134ec6134e784612cb6565b6134ce565b612cb6565b9050919050565b5f819050919050565b61350a836134d7565b61351e613516826134f8565b84845461347d565b825550505050565b5f5f905090565b613535613526565b613540818484613501565b505050565b5b81811015613563576135585f8261352d565b600181019050613546565b5050565b601f8211156135a85761357981613450565b61358284613462565b81016020851015613591578190505b6135a561359d85613462565b830182613545565b50505b505050565b5f82821c905092915050565b5f6135c85f19846008026135ad565b1980831691505092915050565b5f6135e083836135b9565b9150826002028217905092915050565b6135f982612c26565b67ffffffffffffffff81111561361257613611612ddc565b5b61361c82546133ac565b613627828285613567565b5f60209050601f831160018114613658575f8415613646578287015190505b61365085826135d5565b8655506136b7565b601f19841661366686613450565b5f5b8281101561368d57848901518255600182019150602085019450602081019050613668565b868310156136aa57848901516136a6601f8916826135b9565b8355505b6001600288020188555050505b505050505050565b5f6060820190506136d25f830186612d44565b6136df6020830185612fa4565b6136ec6040830184612d44565b949350505050565b5f81905092915050565b50565b5f61370c5f836136f4565b9150613717826136fe565b5f82019050919050565b5f61372b82613701565b9150819050919050565b7f4661696c656420746f2073656e6420726576656e7565000000000000000000005f82015250565b5f613769601683612c30565b915061377482613735565b602082019050919050565b5f6020820190508181035f8301526137968161375d565b9050919050565b7f4e6f2066756e647320746f2077697468647261770000000000000000000000005f82015250565b5f6137d1601483612c30565b91506137dc8261379d565b602082019050919050565b5f6020820190508181035f8301526137fe816137c5565b9050919050565b7f5769746864726177616c206661696c65640000000000000000000000000000005f82015250565b5f613839601183612c30565b915061384482613805565b602082019050919050565b5f6020820190508181035f8301526138668161382d565b9050919050565b7f4e4654206973206e6f74206c697374656420666f722073616c650000000000005f82015250565b5f6138a1601a83612c30565b91506138ac8261386d565b602082019050919050565b5f6020820190508181035f8301526138ce81613895565b9050919050565b7f496e73756666696369656e74207061796d656e740000000000000000000000005f82015250565b5f613909601483612c30565b9150613914826138d5565b602082019050919050565b5f6020820190508181035f830152613936816138fd565b9050919050565b7f43616e6e6f742062757920796f7572206f776e204e46540000000000000000005f82015250565b5f613971601783612c30565b915061397c8261393d565b602082019050919050565b5f6020820190508181035f83015261399e81613965565b9050919050565b7f436f6e7472616374206e6f7420617070726f76656420746f207472616e7366655f8201527f72204e4654000000000000000000000000000000000000000000000000000000602082015250565b5f6139ff602583612c30565b9150613a0a826139a5565b604082019050919050565b5f6020820190508181035f830152613a2c816139f3565b9050919050565b7f5061796d656e74206661696c65640000000000000000000000000000000000005f82015250565b5f613a67600e83612c30565b9150613a7282613a33565b602082019050919050565b5f6020820190508181035f830152613a9481613a5b565b9050919050565b5f606082019050613aae5f830186612fa4565b613abb6020830185612d44565b613ac86040830184612d44565b949350505050565b7f4f6e6c7920746865206f776e65722063616e206c6973742074686973204e46545f82015250565b5f613b04602083612c30565b9150613b0f82613ad0565b602082019050919050565b5f6020820190508181035f830152613b3181613af8565b9050919050565b7f5072696365206d7573742062652067726561746572207468616e207a65726f005f82015250565b5f613b6c601f83612c30565b9150613b7782613b38565b602082019050919050565b5f6020820190508181035f830152613b9981613b60565b9050919050565b7f4e465420697320616c7265616479206c697374656400000000000000000000005f82015250565b5f613bd4601583612c30565b9150613bdf82613ba0565b602082019050919050565b5f6020820190508181035f830152613c0181613bc8565b9050919050565b7f4661696c656420746f2073657420617070726f76616c20666f7220636f6e74725f8201527f6163740000000000000000000000000000000000000000000000000000000000602082015250565b5f613c62602383612c30565b9150613c6d82613c08565b604082019050919050565b5f6020820190508181035f830152613c8f81613c56565b9050919050565b5f604082019050613ca95f830185612fa4565b613cb66020830184612d44565b9392505050565b5f81905092915050565b5f613cd182612c26565b613cdb8185613cbd565b9350613ceb818560208601612c40565b80840191505092915050565b5f613d028285613cc7565b9150613d0e8284613cc7565b91508190509392505050565b7f4f6e6c7920746865206f776e65722063616e2064656c6973742074686973204e5f8201527f4654000000000000000000000000000000000000000000000000000000000000602082015250565b5f613d74602283612c30565b9150613d7f82613d1a565b604082019050919050565b5f6020820190508181035f830152613da181613d68565b9050919050565b7f4e4654206973206e6f74206c69737465640000000000000000000000000000005f82015250565b5f613ddc601183612c30565b9150613de782613da8565b602082019050919050565b5f6020820190508181035f830152613e0981613dd0565b9050919050565b5f819050919050565b5f613e33613e2e613e2984613e10565b6134ce565b612cb6565b9050919050565b613e4381613e19565b82525050565b5f604082019050613e5c5f830185613e3a565b613e696020830184612d44565b9392505050565b7f546f6b656e20646f6573206e6f742065786973740000000000000000000000005f82015250565b5f613ea4601483612c30565b9150613eaf82613e70565b602082019050919050565b5f6020820190508181035f830152613ed181613e98565b9050919050565b5f613ee282612fcc565b9150613eed83612fcc565b9250828201905060ff811115613f0657613f056133dc565b5b92915050565b5f81519050919050565b5f82825260208201905092915050565b5f613f3082613f0c565b613f3a8185613f16565b9350613f4a818560208601612c40565b613f5381612c4e565b840191505092915050565b5f608082019050613f715f830187612d44565b613f7e6020830186612d44565b613f8b6040830185612fa4565b8181036060830152613f9d8184613f26565b905095945050505050565b5f81519050613fb681612b9e565b92915050565b5f60208284031215613fd157613fd0612b6b565b5b5f613fde84828501613fa8565b91505092915050565b5f604082019050613ffa5f830185612d44565b6140076020830184612fa4565b9392505050565b7f4e487b71000000000000000000000000000000000000000000000000000000005f52601260045260245ffdfea26469706673582212204cd76090babd075858d1a9c55cdc67e45e95b2f1c0534759ebf975d76bef02b764736f6c634300081c0033",
  "linkReferences": {},
  "deployedLinkReferences": {},
  "immutableReferences": {},
  "inputSourceName": "project/contracts/ArtNFT.sol",
  "buildInfoId": "solc-0_8_28-da82b5002c39c7e20dd2072c6ac14eb4299a1919"
}