{
  "_format": "hh3-artifact-1",
  "contractName": "ArtNFT",
  "sourceName": "contracts/ArtNFT.sol",
  "abi": [
    {
      "inputs": [],
      "stateMutability": "nonpayable",
      "type": "constructor"
    },
    {
      "inputs": [
        {
          "internalType": "address",
          "name": "sender",
          "type": "address"
        },
        {
          "internalType": "uint256",
          "name": "tokenId",
          "type": "uint256"
        },
        {
          "internalType": "address",
          "name": "owner",
          "type": "address"
        }
      ],
      "name": "ERC721IncorrectOwner",
      "type": "error"
    },
    {
      "inputs": [
        {
          "internalType": "address",
          "name": "operator",
          "type": "address"
        },
        {
          "internalType": "uint256",
          "name": "tokenId",
          "type": "uint256"
        }
      ],
      "name": "ERC721InsufficientApproval",
      "type": "error"
    },
    {
      "inputs": [
        {
          "internalType": "address",
          "name": "approver",
          "type": "address"
        }
      ],
      "name": "ERC721InvalidApprover",
      "type": "error"
    },
    {
      "inputs": [
        {
          "internalType": "address",
          "name": "operator",
          "type": "address"
        }
      ],
      "name": "ERC721InvalidOperator",
      "type": "error"
    },
    {
      "inputs": [
        {
          "internalType": "address",
          "name": "owner",
          "type": "address"
        }
      ],
      "name": "ERC721InvalidOwner",
      "type": "error"
    },
    {
      "inputs": [
        {
          "internalType": "address",
          "name": "receiver",
          "type": "address"
        }
      ],
      "name": "ERC721InvalidReceiver",
      "type": "error"
    },
    {
      "inputs": [
        {
          "internalType": "address",
          "name": "sender",
          "type": "address"
        }
      ],
      "name": "ERC721InvalidSender",
      "type": "error"
    },
    {
      "inputs": [
        {
          "internalType": "uint256",
          "name": "tokenId",
          "type": "uint256"
        }
      ],
      "name": "ERC721NonexistentToken",
      "type": "error"
    },
    {
      "inputs": [
        {
          "internalType": "address",
          "name": "owner",
          "type": "address"
        }
      ],
      "name": "Failed",
      "type": "error"
    },
    {
      "inputs": [
        {
          "internalType": "address",
          "name": "owner",
          "type": "address"
        }
      ],
      "name": "OwnableInvalidOwner",
      "type": "error"
    },
    {
      "inputs": [
        {
          "internalType": "address",
          "name": "account",
          "type": "address"
        }
      ],
      "name": "OwnableUnauthorizedAccount",
      "type": "error"
    },
    {
      "anonymous": false,
      "inputs": [
        {
          "indexed": true,
          "internalType": "address",
          "name": "owner",
          "type": "address"
        },
        {
          "indexed": true,
          "internalType": "address",
          "name": "approved",
          "type": "address"
        },
        {
          "indexed": true,
          "internalType": "uint256",
          "name": "tokenId",
          "type": "uint256"
        }
      ],
      "name": "Approval",
      "type": "event"
    },
    {
      "anonymous": false,
      "inputs": [
        {
          "indexed": true,
          "internalType": "address",
          "name": "owner",
          "type": "address"
        },
        {
          "indexed": true,
          "internalType": "address",
          "name": "operator",
          "type": "address"
        },
        {
          "indexed": false,
          "internalType": "bool",
          "name": "approved",
          "type": "bool"
        }
      ],
      "name": "ApprovalForAll",
      "type": "event"
    },
    {
      "anonymous": false,
      "inputs": [
        {
          "indexed": false,
          "internalType": "uint256",
          "name": "_fromTokenId",
          "type": "uint256"
        },
        {
          "indexed": false,
          "internalType": "uint256",
          "name": "_toTokenId",
          "type": "uint256"
        }
      ],
      "name": "BatchMetadataUpdate",
      "type": "event"
    },
    {
      "anonymous": false,
      "inputs": [
        {
          "indexed": false,
          "internalType": "uint256",
          "name": "_tokenId",
          "type": "uint256"
        }
      ],
      "name": "MetadataUpdate",
      "type": "event"
    },
    {
      "anonymous": false,
      "inputs": [
        {
          "indexed": true,
          "internalType": "uint256",
          "name": "tokenId",
          "type": "uint256"
        },
        {
          "indexed": false,
          "internalType": "uint256",
          "name": "price",
          "type": "uint256"
        },
        {
          "indexed": false,
          "internalType": "address",
          "name": "seller",
          "type": "address"
        }
      ],
      "name": "NFTListed",
      "type": "event"
    },
    {
      "anonymous": false,
      "inputs": [
        {
          "indexed": true,
          "internalType": "uint256",
          "name": "tokenId",
          "type": "uint256"
        },
        {
          "indexed": false,
          "internalType": "uint256",
          "name": "price",
          "type": "uint256"
        },
        {
          "indexed": false,
          "internalType": "address",
          "name": "buyer",
          "type": "address"
        },
        {
          "indexed": false,
          "internalType": "address",
          "name": "seller",
          "type": "address"
        }
      ],
      "name": "NFTPurchased",
      "type": "event"
    },
    {
      "anonymous": false,
      "inputs": [
        {
          "indexed": true,
          "internalType": "address",
          "name": "previousOwner",
          "type": "address"
        },
        {
          "indexed": true,
          "internalType": "address",
          "name": "newOwner",
          "type": "address"
        }
      ],
      "name": "OwnershipTransferred",
      "type": "event"
    },
    {
      "anonymous": false,
      "inputs": [
        {
          "indexed": true,
          "internalType": "address",
          "name": "from",
          "type": "address"
        },
        {
          "indexed": true,
          "internalType": "address",
          "name": "to",
          "type": "address"
        },
        {
          "indexed": true,
          "internalType": "uint256",
          "name": "tokenId",
          "type": "uint256"
        }
      ],
      "name": "Transfer",
      "type": "event"
    },
    {
      "inputs": [
        {
          "internalType": "address",
          "name": "to",
          "type": "address"
        },
        {
          "internalType": "uint256",
          "name": "tokenId",
          "type": "uint256"
        }
      ],
      "name": "approve",
      "outputs": [],
      "stateMutability": "nonpayable",
      "type": "function"
    },
    {
      "inputs": [
        {
          "internalType": "address",
          "name": "owner",
          "type": "address"
        }
      ],
      "name": "balanceOf",
      "outputs": [
        {
          "internalType": "uint256",
          "name": "",
          "type": "uint256"
        }
      ],
      "stateMutability": "view",
      "type": "function"
    },
    {
      "inputs": [
        {
          "internalType": "uint256",
          "name": "tokenId",
          "type": "uint256"
        }
      ],
      "name": "buyNFT",
      "outputs": [],
      "stateMutability": "payable",
      "type": "function"
    },
    {
      "inputs": [
        {
          "internalType": "uint256",
          "name": "itemId",
          "type": "uint256"
        },
        {
          "internalType": "uint8",
          "name": "placeKey",
          "type": "uint8"
        }
      ],
      "name": "check_rwa_PublicationPlace",
      "outputs": [
        {
          "internalType": "string",
          "name": "",
          "type": "string"
        }
      ],
      "stateMutability": "view",
      "type": "function"
    },
    {
      "inputs": [
        {
          "internalType": "uint256",
          "name": "itemId",
          "type": "uint256"
        }
      ],
      "name": "check_rwa_copies",
      "outputs": [
        {
          "internalType": "uint8",
          "name": "",
          "type": "uint8"
        }
      ],
      "stateMutability": "view",
      "type": "function"
    },
    {
      "inputs": [
        {
          "internalType": "uint256",
          "name": "tokenId",
          "type": "uint256"
        }
      ],
      "name": "delistNFT",
      "outputs": [],
      "stateMutability": "nonpayable",
      "type": "function"
    },
    {
      "inputs": [
        {
          "internalType": "uint256",
          "name": "tokenId",
          "type": "uint256"
        }
      ],
      "name": "getApproved",
      "outputs": [
        {
          "internalType": "address",
          "name": "",
          "type": "address"
        }
      ],
      "stateMutability": "view",
      "type": "function"
    },
    {
      "inputs": [],
      "name": "getCurrentTokenId",
      "outputs": [
        {
          "internalType": "uint256",
          "name": "",
          "type": "uint256"
        }
      ],
      "stateMutability": "view",
      "type": "function"
    },
    {
      "inputs": [
        {
          "internalType": "address",
          "name": "owner",
          "type": "address"
        },
        {
          "internalType": "address",
          "name": "operator",
          "type": "address"
        }
      ],
      "name": "isApprovedForAll",
      "outputs": [
        {
          "internalType": "bool",
          "name": "",
          "type": "bool"
        }
      ],
      "stateMutability": "view",
      "type": "function"
    },
    {
      "inputs": [
        {
          "internalType": "uint256",
          "name": "",
          "type": "uint256"
        }
      ],
      "name": "isListed",
      "outputs": [
        {
          "internalType": "bool",
          "name": "",
          "type": "bool"
        }
      ],
      "stateMutability": "view",
      "type": "function"
    },
    {
      "inputs": [
        {
          "internalType": "uint256",
          "name": "",
          "type": "uint256"
        }
      ],
      "name": "itemId_to_metadata",
      "outputs": [
        {
          "internalType": "string",
          "name": "name",
          "type": "string"
        },
        {
          "internalType": "uint8",
          "name": "rwa_copies_count",
          "type": "uint8"
        }
      ],
      "stateMutability": "view",
      "type": "function"
    },
    {
      "inputs": [
        {
          "internalType": "uint256",
          "name": "tokenId",
          "type": "uint256"
        },
        {
          "internalType": "uint256",
          "name": "price",
          "type": "uint256"
        }
      ],
      "name": "listNFT",
      "outputs": [],
      "stateMutability": "nonpayable",
      "type": "function"
    },
    {
      "inputs": [
        {
          "internalType": "string",
          "name": "tokenURI",
          "type": "string"
        },
        {
          "internalType": "string",
          "name": "name",
          "type": "string"
        },
        {
          "internalType": "string",
          "name": "placed_loca",
          "type": "string"
        }
      ],
      "name": "mintItem",
      "outputs": [
        {
          "internalType": "uint256",
          "name": "",
          "type": "uint256"
        }
      ],
      "stateMutability": "nonpayable",
      "type": "function"
    },
    {
      "inputs": [],
      "name": "name",
      "outputs": [
        {
          "internalType": "string",
          "name": "",
          "type": "string"
        }
      ],
      "stateMutability": "view",
      "type": "function"
    },
    {
      "inputs": [],
      "name": "owner",
      "outputs": [
        {
          "internalType": "address",
          "name": "",
          "type": "address"
        }
      ],
      "stateMutability": "view",
      "type": "function"
    },
    {
      "inputs": [
        {
          "internalType": "uint256",
          "name": "tokenId",
          "type": "uint256"
        }
      ],
      "name": "ownerOf",
      "outputs": [
        {
          "internalType": "address",
          "name": "",
          "type": "address"
        }
      ],
      "stateMutability": "view",
      "type": "function"
    },
    {
      "inputs": [],
      "name": "renounceOwnership",
      "outputs": [],
      "stateMutability": "nonpayable",
      "type": "function"
    },
    {
      "inputs": [
        {
          "internalType": "address",
          "name": "from",
          "type": "address"
        },
        {
          "internalType": "address",
          "name": "to",
          "type": "address"
        },
        {
          "internalType": "uint256",
          "name": "tokenId",
          "type": "uint256"
        }
      ],
      "name": "safeTransferFrom",
      "outputs": [],
      "stateMutability": "nonpayable",
      "type": "function"
    },
    {
      "inputs": [
        {
          "internalType": "address",
          "name": "from",
          "type": "address"
        },
        {
          "internalType": "address",
          "name": "to",
          "type": "address"
        },
        {
          "internalType": "uint256",
          "name": "tokenId",
          "type": "uint256"
        },
        {
          "internalType": "bytes",
          "name": "data",
          "type": "bytes"
        }
      ],
      "name": "safeTransferFrom",
      "outputs": [],
      "stateMutability": "nonpayable",
      "type": "function"
    },
    {
      "inputs": [
        {
          "internalType": "address",
          "name": "operator",
          "type": "address"
        },
        {
          "internalType": "bool",
          "name": "approved",
          "type": "bool"
        }
      ],
      "name": "setApprovalForAll",
      "outputs": [],
      "stateMutability": "nonpayable",
      "type": "function"
    },
    {
      "inputs": [
        {
          "internalType": "address",
          "name": "_itemowner",
          "type": "address"
        }
      ],
      "name": "share_revenue",
      "outputs": [],
      "stateMutability": "payable",
      "type": "function"
    },
    {
      "inputs": [
        {
          "internalType": "bytes4",
          "name": "interfaceId",
          "type": "bytes4"
        }
      ],
      "name": "supportsInterface",
      "outputs": [
        {
          "internalType": "bool",
          "name": "",
          "type": "bool"
        }
      ],
      "stateMutability": "view",
      "type": "function"
    },
    {
      "inputs": [],
      "name": "symbol",
      "outputs": [
        {
          "internalType": "string",
          "name": "",
          "type": "string"
        }
      ],
      "stateMutability": "view",
      "type": "function"
    },
    {
      "inputs": [
        {
          "internalType": "uint256",
          "name": "",
          "type": "uint256"
        }
      ],
      "name": "tokenPrices",
      "outputs": [
        {
          "internalType": "uint256",
          "name": "",
          "type": "uint256"
        }
      ],
      "stateMutability": "view",
      "type": "function"
    },
    {
      "inputs": [
        {
          "internalType": "uint256",
          "name": "tokenId",
          "type": "uint256"
        }
      ],
      "name": "tokenURI",
      "outputs": [
        {
          "internalType": "string",
          "name": "",
          "type": "string"
        }
      ],
      "stateMutability": "view",
      "type": "function"
    },
    {
      "inputs": [
        {
          "internalType": "uint256",
          "name": "itemId",
          "type": "uint256"
        }
      ],
      "name": "token_name",
      "outputs": [
        {
          "internalType": "string",
          "name": "",
          "type": "string"
        }
      ],
      "stateMutability": "view",
      "type": "function"
    },
    {
      "inputs": [
        {
          "internalType": "uint256",
          "name": "itemId",
          "type": "uint256"
        }
      ],
      "name": "token_price",
      "outputs": [
        {
          "internalType": "uint256",
          "name": "",
          "type": "uint256"
        }
      ],
      "stateMutability": "view",
      "type": "function"
    },
    {
      "inputs": [
        {
          "internalType": "address",
          "name": "from",
          "type": "address"
        },
        {
          "internalType": "address",
          "name": "to",
          "type": "address"
        },
        {
          "internalType": "uint256",
          "name": "tokenId",
          "type": "uint256"
        }
      ],
      "name": "transferFrom",
      "outputs": [],
      "stateMutability": "nonpayable",
      "type": "function"
    },
    {
      "inputs": [
        {
          "internalType": "address",
          "name": "newOwner",
          "type": "address"
        }
      ],
      "name": "transferOwnership",
      "outputs": [],
      "stateMutability": "nonpayable",
      "type": "function"
    },
    {
      "inputs": [
        {
          "internalType": "uint256",
          "name": "tokenId",
          "type": "uint256"
        },
        {
          "internalType": "uint8",
          "name": "placeKey",
          "type": "uint8"
        },
        {
          "internalType": "string",
          "name": "place",
          "type": "string"
        }
      ],
      "name": "updatePublicationPlace",
      "outputs": [],
      "stateMutability": "nonpayable",
      "type": "function"
    },
    {
      "inputs": [],
      "name": "withdraw",
      "outputs": [],
      "stateMutability": "nonpayable",
      "type": "function"
    }
  ],
  "bytecode": "0x608060405234801561000f575f5ffd5b503360405180604001604052806006815260200165135bde53919560d21b815250604051806040016040528060048152602001631353919560e21b815250815f908161005b9190610190565b5060016100688282610190565b5050506001600160a01b03811661009857604051631e4fbdf760e01b81525f600482015260240160405180910390fd5b6100a1816100a7565b5061024a565b600780546001600160a01b038381166001600160a01b0319831681179093556040519116919082907f8be0079c531659141344cd1fd0a4f28419497f9722a3daafe3b4186f6b6457e0905f90a35050565b634e487b7160e01b5f52604160045260245ffd5b600181811c9082168061012057607f821691505b60208210810361013e57634e487b7160e01b5f52602260045260245ffd5b50919050565b601f82111561018b57805f5260205f20601f840160051c810160208510156101695750805b601f840160051c820191505b81811015610188575f8155600101610175565b50505b505050565b81516001600160401b038111156101a9576101a96100f8565b6101bd816101b7845461010c565b84610144565b6020601f8211600181146101ef575f83156101d85750848201515b5f19600385901b1c1916600184901b178455610188565b5f84815260208120601f198516915b8281101561021e57878501518255602094850194600190920191016101fe565b508482101561023b57868401515f19600387901b60f8161c191681555b50505050600190811b01905550565b6122e1806102575f395ff3fe6080604052600436106101d0575f3560e01c80636d1432ac116100fd578063c87b56dd11610092578063f1fcd1a311610062578063f1fcd1a31461055c578063f2fde38b1461057b578063f43cc7a51461059a578063fcce4883146105b9575f5ffd5b8063c87b56dd146104d4578063cb917b9c146104f3578063e5afe3e614610512578063e985e9c51461053d575f5ffd5b806394383f14116100cd57806394383f141461046357806395d89b4114610482578063a22cb46514610496578063b88d4fde146104b5575f5ffd5b80636d1432ac146103d057806370a0823114610413578063715018a6146104325780638da5cb5b14610446575f5ffd5b80632818553f1161017357806351ed82881161014357806351ed82881461036b578063561892361461037e5780636352211e14610392578063672727ab146103b1575f5ffd5b80632818553f146102fa5780633119fc84146103255780633ccfd60b1461033857806342842e0e1461034c575f5ffd5b8063095ea7b3116101ae578063095ea7b3146102605780630ff7ffdb1461028157806320205c4c146102ae57806323b872dd146102db575f5ffd5b806301ffc9a7146101d457806306fdde0314610208578063081812fc14610229575b5f5ffd5b3480156101df575f5ffd5b506101f36101ee366004611cdb565b6105e7565b60405190151581526020015b60405180910390f35b348015610213575f5ffd5b5061021c610611565b6040516101ff9190611d24565b348015610234575f5ffd5b50610248610243366004611d36565b6106a0565b6040516001600160a01b0390911681526020016101ff565b34801561026b575f5ffd5b5061027f61027a366004611d68565b6106c7565b005b34801561028c575f5ffd5b506102a061029b366004611e39565b6106d6565b6040519081526020016101ff565b3480156102b9575f5ffd5b506102cd6102c8366004611d36565b610755565b6040516101ff929190611ec7565b3480156102e6575f5ffd5b5061027f6102f5366004611eeb565b6107f9565b348015610305575f5ffd5b506102a0610314366004611d36565b5f908152600a602052604090205490565b61027f610333366004611f25565b610887565b348015610343575f5ffd5b5061027f61091f565b348015610357575f5ffd5b5061027f610366366004611eeb565b610a10565b61027f610379366004611d36565b610a2f565b348015610389575f5ffd5b506008546102a0565b34801561039d575f5ffd5b506102486103ac366004611d36565b610cd3565b3480156103bc575f5ffd5b5061021c6103cb366004611d36565b610cdd565b3480156103db575f5ffd5b506104016103ea366004611d36565b5f9081526009602052604090206001015460ff1690565b60405160ff90911681526020016101ff565b34801561041e575f5ffd5b506102a061042d366004611f25565b610d7c565b34801561043d575f5ffd5b5061027f610dc1565b348015610451575f5ffd5b506007546001600160a01b0316610248565b34801561046e575f5ffd5b5061027f61047d366004611f3e565b610dd4565b34801561048d575f5ffd5b5061021c610fb3565b3480156104a1575f5ffd5b5061027f6104b0366004611f5e565b610fc2565b3480156104c0575f5ffd5b5061027f6104cf366004611f97565b610fcd565b3480156104df575f5ffd5b5061021c6104ee366004611d36565b610fe5565b3480156104fe575f5ffd5b5061027f61050d366004611d36565b6110f0565b34801561051d575f5ffd5b506102a061052c366004611d36565b600a6020525f908152604090205481565b348015610548575f5ffd5b506101f361055736600461200e565b611215565b348015610567575f5ffd5b5061021c61057636600461204f565b611242565b348015610586575f5ffd5b5061027f610595366004611f25565b6112f3565b3480156105a5575f5ffd5b5061027f6105b4366004612070565b611330565b3480156105c4575f5ffd5b506101f36105d3366004611d36565b600b6020525f908152604090205460ff1681565b5f6001600160e01b03198216632483248360e11b148061060b575061060b826113fe565b92915050565b60605f805461061f906120ad565b80601f016020809104026020016040519081016040528092919081815260200182805461064b906120ad565b80156106965780601f1061066d57610100808354040283529160200191610696565b820191905f5260205f20905b81548152906001019060200180831161067957829003601f168201915b5050505050905090565b5f6106aa8261144d565b505f828152600460205260409020546001600160a01b031661060b565b6106d2828233611485565b5050565b6008545f906106e53382611492565b6106ef81866114f3565b60088054905f6106fe836120f9565b90915550505f81815260096020526040902061071a8582612155565b505f81815260096020908152604080832060018101805460ff19169055838052600201909152902061074c8482612155565b50949350505050565b60096020525f908152604090208054819061076f906120ad565b80601f016020809104026020016040519081016040528092919081815260200182805461079b906120ad565b80156107e65780601f106107bd576101008083540402835291602001916107e6565b820191905f5260205f20905b8154815290600101906020018083116107c957829003601f168201915b5050506001909301549192505060ff1682565b6001600160a01b03821661082757604051633250574960e11b81525f60048201526024015b60405180910390fd5b5f610833838333611542565b9050836001600160a01b0316816001600160a01b031614610881576040516364283d7b60e01b81526001600160a01b038086166004830152602482018490528216604482015260640161081e565b50505050565b5f816001600160a01b0316346040515f6040518083038185875af1925050503d805f81146108d0576040519150601f19603f3d011682016040523d82523d5f602084013e6108d5565b606091505b50509050806106d25760405162461bcd60e51b81526020600482015260166024820152754661696c656420746f2073656e6420726576656e756560501b604482015260640161081e565b610927611634565b478061096c5760405162461bcd60e51b81526020600482015260146024820152734e6f2066756e647320746f20776974686472617760601b604482015260640161081e565b5f61097f6007546001600160a01b031690565b6001600160a01b0316826040515f6040518083038185875af1925050503d805f81146109c6576040519150601f19603f3d011682016040523d82523d5f602084013e6109cb565b606091505b50509050806106d25760405162461bcd60e51b815260206004820152601160248201527015da5d1a191c985dd85b0819985a5b1959607a1b604482015260640161081e565b610a2a83838360405180602001604052805f815250610fcd565b505050565b5f818152600b602052604090205460ff16610a8c5760405162461bcd60e51b815260206004820152601a60248201527f4e4654206973206e6f74206c697374656420666f722073616c65000000000000604482015260640161081e565b5f818152600a6020526040902054341015610ae05760405162461bcd60e51b8152602060048201526014602482015273125b9cdd59999a58da595b9d081c185e5b595b9d60621b604482015260640161081e565b5f610aea82610cd3565b9050336001600160a01b03821603610b445760405162461bcd60e51b815260206004820152601760248201527f43616e6e6f742062757920796f7572206f776e204e4654000000000000000000604482015260640161081e565b30610b4e836106a0565b6001600160a01b031614610bb25760405162461bcd60e51b815260206004820152602560248201527f436f6e7472616374206e6f7420617070726f76656420746f207472616e7366656044820152641c8813919560da1b606482015260840161081e565b5f610bbc83610cd3565b90505f816001600160a01b0316346040515f6040518083038185875af1925050503d805f8114610c07576040519150601f19603f3d011682016040523d82523d5f602084013e610c0c565b606091505b5050905080610c4e5760405162461bcd60e51b815260206004820152600e60248201526d14185e5b595b9d0819985a5b195960921b604482015260640161081e565b5f848152600b60209081526040808320805460ff19169055600a909152812055610c79833386611661565b610c835f856106c7565b604080513481523360208201526001600160a01b03851681830152905185917f8d4fa5d76924913cce4b580da4c40e50715ae52df27a337f5fcaeb7614043833919081900360600190a250505050565b5f61060b8261144d565b5f818152600960205260409020805460609190610cf9906120ad565b80601f0160208091040260200160405190810160405280929190818152602001828054610d25906120ad565b8015610d705780601f10610d4757610100808354040283529160200191610d70565b820191905f5260205f20905b815481529060010190602001808311610d5357829003601f168201915b50505050509050919050565b5f6001600160a01b038216610da6576040516322718ad960e21b81525f600482015260240161081e565b506001600160a01b03165f9081526003602052604090205490565b610dc9611634565b610dd25f61170e565b565b33610dde83610cd3565b6001600160a01b031614610e345760405162461bcd60e51b815260206004820181905260248201527f4f6e6c7920746865206f776e65722063616e206c6973742074686973204e4654604482015260640161081e565b5f8111610e835760405162461bcd60e51b815260206004820152601f60248201527f5072696365206d7573742062652067726561746572207468616e207a65726f00604482015260640161081e565b5f828152600b602052604090205460ff1615610ed95760405162461bcd60e51b8152602060048201526015602482015274139195081a5cc8185b1c9958591e481b1a5cdd1959605a1b604482015260640161081e565b610ee330836106c7565b30610eed836106a0565b6001600160a01b031614610f4f5760405162461bcd60e51b815260206004820152602360248201527f4661696c656420746f2073657420617070726f76616c20666f7220636f6e74726044820152621858dd60ea1b606482015260840161081e565b5f828152600a60209081526040808320849055600b825291829020805460ff191660011790558151838152339181019190915283917fd2ab19646d6f9fdd37206f962b4ebaab8a4a23ad87f7695e7e1736803cb8bf74910160405180910390a25050565b60606001805461061f906120ad565b6106d233838361175f565b610fd88484846107f9565b61088133858585856117fd565b6060610ff08261144d565b505f8281526006602052604081208054611009906120ad565b80601f0160208091040260200160405190810160405280929190818152602001828054611035906120ad565b80156110805780601f1061105757610100808354040283529160200191611080565b820191905f5260205f20905b81548152906001019060200180831161106357829003601f168201915b505050505090505f61109c60408051602081019091525f815290565b905080515f036110ad575092915050565b8151156110df5780826040516020016110c7929190612227565b60405160208183030381529060405292505050919050565b6110e884611925565b949350505050565b336110fa82610cd3565b6001600160a01b03161461115b5760405162461bcd60e51b815260206004820152602260248201527f4f6e6c7920746865206f776e65722063616e2064656c6973742074686973204e604482015261119560f21b606482015260840161081e565b5f818152600b602052604090205460ff166111ac5760405162461bcd60e51b8152602060048201526011602482015270139195081a5cc81b9bdd081b1a5cdd1959607a1b604482015260640161081e565b5f818152600b60209081526040808320805460ff19169055600a90915281208190556111d890826106c7565b604080515f815233602082015282917fd2ab19646d6f9fdd37206f962b4ebaab8a4a23ad87f7695e7e1736803cb8bf74910160405180910390a250565b6001600160a01b039182165f90815260056020908152604080832093909416825291909152205460ff1690565b5f82815260096020908152604080832060ff85168452600201909152902080546060919061126f906120ad565b80601f016020809104026020016040519081016040528092919081815260200182805461129b906120ad565b80156112e65780601f106112bd576101008083540402835291602001916112e6565b820191905f5260205f20905b8154815290600101906020018083116112c957829003601f168201915b5050505050905092915050565b6112fb611634565b6001600160a01b03811661132457604051631e4fbdf760e01b81525f600482015260240161081e565b61132d8161170e565b50565b611338611634565b5f838152600260205260409020546001600160a01b03166113925760405162461bcd60e51b8152602060048201526014602482015273151bdad95b88191bd95cc81b9bdd08195e1a5cdd60621b604482015260640161081e565b5f83815260096020908152604080832060ff8616845260020190915290206113ba8282612155565b505f83815260096020526040812060019081018054919290916113e190849060ff1661223b565b92506101000a81548160ff021916908360ff160217905550505050565b5f6001600160e01b031982166380ac58cd60e01b148061142e57506001600160e01b03198216635b5e139f60e01b145b8061060b57506301ffc9a760e01b6001600160e01b031983161461060b565b5f818152600260205260408120546001600160a01b03168061060b57604051637e27328960e01b81526004810184905260240161081e565b610a2a8383836001611996565b6001600160a01b0382166114bb57604051633250574960e11b81525f600482015260240161081e565b5f6114c783835f611542565b90506001600160a01b03811615610a2a576040516339e3563760e11b81525f600482015260240161081e565b5f82815260066020526040902061150a8282612155565b506040518281527ff8e1a15aba9398e019f0b49df1a4fde98ee17ae345cb5f6b5e2c27f5033e8ce79060200160405180910390a15050565b5f828152600260205260408120546001600160a01b039081169083161561156e5761156e818486611a9a565b6001600160a01b038116156115a8576115895f855f5f611996565b6001600160a01b0381165f90815260036020526040902080545f190190555b6001600160a01b038516156115d6576001600160a01b0385165f908152600360205260409020805460010190555b5f8481526002602052604080822080546001600160a01b0319166001600160a01b0389811691821790925591518793918516917fddf252ad1be2c89b69c2b068fc378daa952ba7f163c4a11628f55a4df523b3ef91a4949350505050565b6007546001600160a01b03163314610dd25760405163118cdaa760e01b815233600482015260240161081e565b6001600160a01b03821661168a57604051633250574960e11b81525f600482015260240161081e565b5f61169683835f611542565b90506001600160a01b0381166116c257604051637e27328960e01b81526004810183905260240161081e565b836001600160a01b0316816001600160a01b031614610881576040516364283d7b60e01b81526001600160a01b038086166004830152602482018490528216604482015260640161081e565b600780546001600160a01b038381166001600160a01b0319831681179093556040519116919082907f8be0079c531659141344cd1fd0a4f28419497f9722a3daafe3b4186f6b6457e0905f90a35050565b6001600160a01b03821661179157604051630b61174360e31b81526001600160a01b038316600482015260240161081e565b6001600160a01b038381165f81815260056020908152604080832094871680845294825291829020805460ff191686151590811790915591519182527f17307eab39ab6107e8899845ad3d59bd9653f200f220920489ca2b5937696c31910160405180910390a3505050565b6001600160a01b0383163b1561191e57604051630a85bd0160e11b81526001600160a01b0384169063150b7a029061183f908890889087908790600401612254565b6020604051808303815f875af1925050508015611879575060408051601f3d908101601f1916820190925261187691810190612290565b60015b6118e0573d8080156118a6576040519150601f19603f3d011682016040523d82523d5f602084013e6118ab565b606091505b5080515f036118d857604051633250574960e11b81526001600160a01b038516600482015260240161081e565b805160208201fd5b6001600160e01b03198116630a85bd0160e11b1461191c57604051633250574960e11b81526001600160a01b038516600482015260240161081e565b505b5050505050565b60606119308261144d565b505f61194660408051602081019091525f815290565b90505f8151116119645760405180602001604052805f81525061198f565b8061196e84611afe565b60405160200161197f929190612227565b6040516020818303038152906040525b9392505050565b80806119aa57506001600160a01b03821615155b15611a6b575f6119b98461144d565b90506001600160a01b038316158015906119e55750826001600160a01b0316816001600160a01b031614155b80156119f857506119f68184611215565b155b15611a215760405163a9fbf51f60e01b81526001600160a01b038416600482015260240161081e565b8115611a695783856001600160a01b0316826001600160a01b03167f8c5be1e5ebec7d5bd14f71427d1e84f3dd0314c0f7b2291e5b200ac8c7c3b92560405160405180910390a45b505b50505f90815260046020526040902080546001600160a01b0319166001600160a01b0392909216919091179055565b611aa5838383611b8e565b610a2a576001600160a01b038316611ad357604051637e27328960e01b81526004810182905260240161081e565b60405163177e802f60e01b81526001600160a01b03831660048201526024810182905260440161081e565b60605f611b0a83611bef565b60010190505f8167ffffffffffffffff811115611b2957611b29611d90565b6040519080825280601f01601f191660200182016040528015611b53576020820181803683370190505b5090508181016020015b5f19016f181899199a1a9b1b9c1cb0b131b232b360811b600a86061a8153600a8504945084611b5d57509392505050565b5f6001600160a01b038316158015906110e85750826001600160a01b0316846001600160a01b03161480611bc75750611bc78484611215565b806110e85750505f908152600460205260409020546001600160a01b03908116911614919050565b5f8072184f03e93ff9f4daa797ed6e38ed64bf6a1f0160401b8310611c2d5772184f03e93ff9f4daa797ed6e38ed64bf6a1f0160401b830492506040015b6d04ee2d6d415b85acef81000000008310611c59576d04ee2d6d415b85acef8100000000830492506020015b662386f26fc100008310611c7757662386f26fc10000830492506010015b6305f5e1008310611c8f576305f5e100830492506008015b6127108310611ca357612710830492506004015b60648310611cb5576064830492506002015b600a831061060b5760010192915050565b6001600160e01b03198116811461132d575f5ffd5b5f60208284031215611ceb575f5ffd5b813561198f81611cc6565b5f81518084528060208401602086015e5f602082860101526020601f19601f83011685010191505092915050565b602081525f61198f6020830184611cf6565b5f60208284031215611d46575f5ffd5b5035919050565b80356001600160a01b0381168114611d63575f5ffd5b919050565b5f5f60408385031215611d79575f5ffd5b611d8283611d4d565b946020939093013593505050565b634e487b7160e01b5f52604160045260245ffd5b5f5f67ffffffffffffffff841115611dbe57611dbe611d90565b50604051601f19601f85018116603f0116810181811067ffffffffffffffff82111715611ded57611ded611d90565b604052838152905080828401851015611e04575f5ffd5b838360208301375f60208583010152509392505050565b5f82601f830112611e2a575f5ffd5b61198f83833560208501611da4565b5f5f5f60608486031215611e4b575f5ffd5b833567ffffffffffffffff811115611e61575f5ffd5b611e6d86828701611e1b565b935050602084013567ffffffffffffffff811115611e89575f5ffd5b611e9586828701611e1b565b925050604084013567ffffffffffffffff811115611eb1575f5ffd5b611ebd86828701611e1b565b9150509250925092565b604081525f611ed96040830185611cf6565b905060ff831660208301529392505050565b5f5f5f60608486031215611efd575f5ffd5b611f0684611d4d565b9250611f1460208501611d4d565b929592945050506040919091013590565b5f60208284031215611f35575f5ffd5b61198f82611d4d565b5f5f60408385031215611f4f575f5ffd5b50508035926020909101359150565b5f5f60408385031215611f6f575f5ffd5b611f7883611d4d565b915060208301358015158114611f8c575f5ffd5b809150509250929050565b5f5f5f5f60808587031215611faa575f5ffd5b611fb385611d4d565b9350611fc160208601611d4d565b925060408501359150606085013567ffffffffffffffff811115611fe3575f5ffd5b8501601f81018713611ff3575f5ffd5b61200287823560208401611da4565b91505092959194509250565b5f5f6040838503121561201f575f5ffd5b61202883611d4d565b915061203660208401611d4d565b90509250929050565b803560ff81168114611d63575f5ffd5b5f5f60408385031215612060575f5ffd5b823591506120366020840161203f565b5f5f5f60608486031215612082575f5ffd5b833592506120926020850161203f565b9150604084013567ffffffffffffffff811115611eb1575f5ffd5b600181811c908216806120c157607f821691505b6020821081036120df57634e487b7160e01b5f52602260045260245ffd5b50919050565b634e487b7160e01b5f52601160045260245ffd5b5f6001820161210a5761210a6120e5565b5060010190565b601f821115610a2a57805f5260205f20601f840160051c810160208510156121365750805b601f840160051c820191505b8181101561191e575f8155600101612142565b815167ffffffffffffffff81111561216f5761216f611d90565b6121838161217d84546120ad565b84612111565b6020601f8211600181146121b5575f831561219e5750848201515b5f19600385901b1c1916600184901b17845561191e565b5f84815260208120601f198516915b828110156121e457878501518255602094850194600190920191016121c4565b508482101561220157868401515f19600387901b60f8161c191681555b50505050600190811b01905550565b5f81518060208401855e5f93019283525090919050565b5f6110e86122358386612210565b84612210565b60ff818116838216019081111561060b5761060b6120e5565b6001600160a01b03858116825284166020820152604081018390526080606082018190525f9061228690830184611cf6565b9695505050505050565b5f602082840312156122a0575f5ffd5b815161198f81611cc656fea2646970667358221220d5a63a04863e17408aec77f723a31a528df4ece3b36f668571c17820c42c664e64736f6c634300081c0033",
  "linkReferences": {},
  "deployedLinkReferences": {},
  "immutableReferences": {},
  "inputSourceName": "project/contracts/ArtNFT.sol",
  "buildInfoId": "solc-0_8_28-14fe1ff472fb17ec186ac0728708c828efd3de9d"
}